:100000000F931F932F933F93CF93DF93CDB7DEB71B
:1000100089839A8385E090E08B839C838BE292E0D6
:100020008D839E838D819E819C018B819C819C010F
:1000300080E090E028012801FC0109958F839887D2
:1000400026960FB6F894DEBF0FBECDBFDF91CF91DD
:100050003F912F911F910F910895CF93DF93CDB7CB
:10006000DEB726960FB6F894DEBF0FBECDBFDF9188
:10007000CF910895CF93DF93CDB7DEB726960FB615
:10008000F894DEBF0FBECDBFDF91CF910895CF931F
:10009000DF93CDB7DEB726960FB6F894DEBF0FBE5E
:1000A000CDBFDF91CF910895CF93DF93CDB7DEB76A
:1000B00026960FB6F894DEBF0FBECDBFDF91CF916D
:1000C0000895CF93DF93CDB7DEB726960FB6F89499
:1000D000DEBF0FBECDBFDF91CF910895CF93DF93E9
:1000E000CDB7DEB726960FB6F894DEBF0FBECDBFF4
:1000F000DF91CF910895CF93DF93CDB7DEB72696EA
:100100000FB6F894DEBF0FBECDBFDF91CF9108953B
:10011000CF93DF93CDB7DEB789839A838B819C81A0
:100120001C0189819A81821993098D839E83269669
:100130000FB6F894DEBF0FBECDBFDF91CF9108950B
:10014000CF93DF93CDB7DEB789819A818395901DD8
:1001500089839A8326960FB6F894DEBF0FBECDBF73
:10016000DF91CF910895CF93DF93CDB7DEB7898329
:100170009A8389819A811C018B819C81820D931DB8
:100180008D839E8326960FB6F894DEBF0FBECDBF3B
:10019000DF91CF910895CF93DF93CDB7DEB7269649
:1001A0000FB6F894DEBF0FBECDBFDF91CF9108959B
:00000001FF
